S00F00007765656B352E322E73726563D4
S113000045C0000060C000005EC000005CC000008D
S11300105AC0000058C0000056C0000054C0000080
S113002052C0000050C000004EC000004CC0000090
S11300304AC0000048C0000046C0000044C00000A0
S113004042C0000040C000003EC000003CC00000B0
S11300503AC0000038C0000036C0000034C00000C0
S113006032C0000030C000002EC000002CC00000D0
S11300702AC0000028C0000026C0000024C00000E0
S113008022C0000020C000001EC0000011241FBEBA
S1130090CFEFD0E1DEBFCDBF11E0A0E0B1E0EEE5EF
S11300A0F2E000E00BBF02C007900D92A030B10750
S11300B0D9F721E0A0E0B1E001C01D92A030B20761
S11300C0E1F77CD0CAC09CCF982F907F95BBAB9AA8
S11300D0E3EDF0E33197F1F700C0000094E095BB45
S11300E0F0E18F9FC001112485BBAB9A83ED90E3AF
S11300F00197F1F700C0000015BA089582E090E07E
S1130100E3DF88E290E0E0DF8CE090E0DDDF86E092
S113011090E0DADF80E890E0D7CF089581E090E0C6
S1130120D3CF0895982F907F95BB95B39C6095BBD2
S1130130E3EDF0E33197F1F700C0000094E095BBE4
S1130140F0E18F9FC001112485BB85B38C6085BB12
S113015083ED90E30197F1F700C0000015BA08950C
S1130160EF92FF920F931F93CF93DF93772374F053
S11301707B01082F192FC0E0D0E0F80181918F0195
S113018090E0D0DF2196EC16FD06BCF7DF91CF910D
S11301901F910F91FF90EF900895181619066CF4B3
S11301A020E030E0E9EFF0E03197F1F700C0000023
S11301B02F5F3F4F28173907A9F70895CF93DF938F
S11301C0CDB7DEB7A0970FB6F894DEBF0FBECDBF94
S11301D08FEF87BB84BB92DF1DD025D08E01065ED6
S11301E01F4F82E390E0D9DF88B3805888BBCE01EB
S11301F0019621D0DE011296FE0171968D918193B4
S1130200E017F107D9F78ADF68E070E0CE01419684
S1130210A7DFE7CF109290008FEC89B986E0809336
S113022095001AB808958AB188618AB908955F9BC8
S1130230FECF8CB108950F931F93CF93DF93EC01FE
S1130240F6DF8A3011F08993FBCF188280E090E0CA
S1110250DF91CF911F910F910895F894FFCF85
S9030000FC
