S00E00006D61747269782E7372656381
S113000045C0000060C000005EC000005CC000008D
S11300105AC0000058C0000056C0000054C0000080
S113002052C0000050C000004EC000004CC0000090
S11300304AC0000048C0000046C0000044C00000A0
S113004042C0000040C000003EC000003CC00000B0
S11300503AC0000038C0000036C0000034C00000C0
S113006032C0000030C000002EC000002CC00000D0
S11300702AC0000028C0000026C0000024C00000E0
S113008022C0000020C000001EC0000011241FBEBA
S1130090CFEFD0E1DEBFCDBF11E0A0E0B1E0ECE5F1
S11300A0FBE000E00BBF02C007900D92A239B1073C
S11300B0D9F721E0A2E9B1E001C01D92AC39B20741
S11300C0E1F782D449C59CCF982F907F95BBAB9A1A
S11300D0E3EDF0E33197F1F700C0000094E095BB45
S11300E0F0E18F9FC001112485BBAB9A83ED90E3AF
S11300F00197F1F700C0000015BA089582E090E07E
S1130100E3DF88E290E0E0DF8CE090E0DDDF86E092
S113011090E0DADF80E890E0D7CF089581E090E0C6
S1130120D3CF0895181619066CF420E030E0E9EFF7
S1130130F0E03197F1F700C000002F5F3F4F281720
S11301403907A9F708951092710080E28093700036
S1130150089584EA80937400E4E7F0E080818823C2
S1130160ECF708958093730084E880937400E4E7C7
S1130170F0E080818823ECF70895AF92BF92CF928C
S1130180DF92FF920F931F93CF93DF9300E011E070
S11301900F2EF8E0AF2EF1E0BF2EF02DC0E0D0E03E
S11301A00F2EF4E7CF2ED12CF02D0F2EF4E9FF2ED5
S11301B0F02DCFDF80EE90E0D5DFCE01D3DFF80164
S11301C081918F0190E0CEDFF601F08222960A152C
S11301D01B0579F7DF91CF911F910F91FF90DF906D
S11301E0CF90BF90AF900895CF92DF92FF920F937C
S11301F01F93CF93DF9308E011E0C0E0D0E00F2E0F
S1130200F4E7CF2ED12CF02D0F2EF4E9FF2EF02D94
S1130210A0DF80EE90E0A6DFCE01A4DFF80181919B
S11302208F0190E09FDFF601F0822296C031D10564
S113023079F7DF91CF911F910F91FF90DF90CF90CD
S11302400895CF92DF92FF920F931F93CF93DF9382
S113025000E111E0C0E0D0E00F2EF4E7CF2ED12C66
S1130260F02D0F2EF4E9FF2EF02D73DF80EE90E0D9
S113027079DFCE0177DFF80181918F0190E072DFA1
S1130280F601F0822296C031D10579F7DF91CF9142
S11302901F910F91FF90DF90CF900895AF92BF927E
S11302A0CF92DF92FF920F931F93CF93DF9305E5D5
S11302B011E00F2EFDE5AF2EF1E0BF2EF02DC0E0D2
S11302C0D0E00F2EF4E7CF2ED12CF02D0F2EF4E931
S11302D0FF2EF02D3EDF80EE90E044DFCE0142DFC2
S11302E0F80181918F0190E03DDFF601F0822296C2
S11302F00A151B0579F7DF91CF911F910F91FF909C
S1130300DF90CF90BF90AF90089580919A01909123
S11303109B01873524E0920721F08E3A9840B1F092
S113032010C081E090E0909399018093980190939C
S113033097018093960110929B0110929A01AECF7F
S1130340089510929B0110929A01089581E090E023
S1130350909399018093980182E090E090939701A3
S11303608093960110929B0110929A0106CF0895F2
S1130370EF92FF921F93CF93DF93C0E0D0E00F2E54
S1130380F4E7EF2EF12CF02D14E9E3DE80EE90E09B
S1130390E9DECE01E7DE80E090E0E4DEF7011083E1
S11303A02296C031D10589F7DF91CF911F91FF903B
S11303B0EF9008959F92AF92BF92CF92DF92EF9207
S11303C0FF920F931F93CF93DF93009194011091A9
S11303D09501801791071CF533C0BBDE80EE90E0D9
S11303E0C1DECE01BFDEF80181918F0190E0BADE5B
S11303F0F701B0822296C031D10579F782EE94E0FC
S113040091DE00919401109195010F5F1F4F10939D
S1130410950100939401C016D1066CF411C06C01CF
S1130420912CA12C0F2EF4E7EF2EF12CF02D0F2E92
S1130430F4E9BF2EF02D0B5A1E4FC92DDA2DCDCF66
S1130440DF91CF911F910F91FF90EF90DF90CF90AC
S1130450BF90AF909F9008959F92AF92BF92CF921A
S1130460DF92EF92FF920F931F93CF93DF9300914C
S1130470940110919501081719071CF533C069DE22
S113048080EE90E06FDECE016DDEF80181918F0188
S113049090E068DEF701B0822296C031D10579F789
S11304A082EE94E03FDE0091940110919501015099
S11304B0110910939501009394010C151D056CF41A
S11304C011C06C01912CA12C0F2EF4E7EF2EF12C0E
S11304D0F02D0F2EF4E9BF2EF02D085E1E4FC92D0E
S11304E0DA2DCDCFDF91CF911F910F91FF90EF9037
S11304F0DF90CF90BF90AF909F90089580B18130EE
S113050079F580919601909197018230910581F05F
S113051083309105D9F0019709F00EC21092990128
S113052010929801109297011092960121CF08958C
S113053010929901109298011092970110929601CD
S1130540109293011092920113CF08951092990181
S113055010929801109297011092960109CF089574
S113056080B1823009F079C0809196019091970111
S11305708130910509F44CC08230910509F467C0BB
S1130580892B09F0D9C180919A0190919B019C011A
S1130590255631092338334050F488519C4F9093A9
S11305A09B0180939A01B1DE88EE93E0BBDD8091DC
S11305B09A0190919B019C012B50310929353105F9
S11305C030F48C599F4F90939B0180939A018091B2
S11305D09A0190919B019C012150310929303105E8
S11305E028F40A9690939B0180939A0180919A0132
S11305F090919B01892B31F481E090E090939B01D1
S113060080939A0180919A0190919B0128C2089548
S11306108091940190919501892B49F4109299014C
S1130620109298011092970110929601A1DE809188
S1130630940190919501181619060CF07DC184EF70
S113064091E070DD6BDD80E090E006CF08951092BC
S1130650930110929201C8CD089580B1843009F0BD
S113066074C080919601909197018130910509F4AD
S11306704CC08230910509F462C0892B09F05CC139
S113068080919A0190919B019C0125563109233850
S1130690334050F48053984F90939B0180939A0178
S11306A034DE88EE93E03EDD80919A0190919B01C7
S11306B09C012B5031092935310530F488539F4F63
S11306C090939B0180939A0180919A0190919B0150
S11306D09C01215031092930310528F44496909326
S11306E09B0180939A0180919A0190919B01892B9F
S11306F031F482E090E090939B0180939A01809181
S11307009A0190919B01ABC10895809194019091BD
S11307109501429734F084EF91E004DD81E190E0AB
S11307209BDE809194019091950141970CF004C156
S113073084EF91E0F7DC81E190E03CCE08951092E3
S113074093011092920119CD089580B1883009F077
S113075074C080919601909197018130910509F4BC
S11307604CC08230910509F462C0892B09F0E4C0C1
S113077080919A0190919B019C012556310923385F
S1130780334050F48854944F90939B0180939A0182
S1130790BCDD88EE93E0C6DC80919A0190919B01C8
S11307A09C012B5031092935310530F4845D9E4F6D
S11307B090939B0180939A0180919A0190919B015F
S11307C09C01215031092930310528F44E9690932B
S11307D09B0180939A0180919A0190919B01892BAE
S11307E031F483E090E090939B0180939A0180918F
S11307F09A0190919B0133C1089580919401909145
S11308009501849734F084EF91E08CDC83E290E0EE
S113081023DE809194019091950183970CF08CC014
S113082084EF91E07FDC83E290E0C4CD089509DD9C
S11308301092930110929201089580B1803109F0D1
S11308407BC080919601909197018130910509F4C4
S113085052C08230910509F467C0892B09F06CC03D
S113086080919A0190919B019C012556310923386E
S1130870334050F48056904F90939B0180939A019B
S113088044DD88EE93E04EDC80919A0190919B01C7
S11308909C012B5031092935310530F480579E4F86
S11308A090939B0180939A0180919A0190919B016E
S11308B09C01215031092930310528F48896909300
S11308C09B0180939A0180919A0190919B01892BBD
S11308D061F480E090E0C3D080919A0190919B01F3
S11308E0049690939B0180939A0180919A01909130
S11308F09B01B5C008958091940190919501C6978C
S113090034F084EF91E00EDC85E390E0A5DD809186
S1130910940190919501C5977CF484EF91E002DCF9
S113092085E390E047CD08958CDC81E090E09093DE
S113093093018093920101C00895CF938091920115
S113094090919301019781F4CFEFD8DDCBBB82E383
S113095090E0E8DB1BBA80E390E0E4DB8091920155
S113096090919301019789F3CF9108951F93CF93A9
S1130970DF93C4DB31D052D0E6DBEBDB80EE90E0DA
S1130980F1DB81E290E0EEDBC4E7D0E014E9188308
S1130990E0DB80EE90E0E6DB80EA90E0E3DB1883C6
S11309A0D8DB80EE90E0DEDB83EE90E0DBDB1883C7
S11309B0D0DB80EE90E0D6DB81E890E0D3DB1883D7
S11309C0DF91CF911F9108958FEF81BB84BB81E0AC
S11309D087BBCCDF93DDFECF8FEF87BBBB98C09A7C
S11309E082E58DB908958FB9779BFECF089598B3AA
S11309F021E030E002C0220F331F8A95E2F72095F0
S1130A00292328BB089598B321E030E002C0220FC7
S1130A10331F8A95E2F7292B28BB089580E0E7DF8E
S1130A2089E0E1DF8FEFDFDF80E0EDDF80E0DFDF13
S1130A308AE0D9DF8FE0D7DF80E0E5DF80E0D7DF31
S1130A408BE0D1DF84E0CFDF80E0DDDF80E0CFDF4B
S1130A508CE0C9DF81E0C7DF80E0D5CF08957F92C5
S1130A608F929F92AF92BF92CF92DF92EF92FF92BA
S1130A700F931F93CF93DF937C01CC24C394D12C89
S1130A800AE010E0982EAF2C77247394812CBC2CB0
S1130A901E141F042CF5F60182E0C816D10484F05C
S1130AA0D92DCA2D272D382D8D2F9C2FB8012DD04F
S1130AB0D62FC72F2F5F3F4F2E173F07A9F702C02E
S1130AC0D92DCA2D80E093DF8B2D8DDF8D2F9C2FA8
S1130AD0B8011BD088DF80E096DF88EE93E022DB4C
S1130AE08FEFC81AD80A85E0C816D10481F6DF91C1
S1130AF0CF911F910F91FF90EF90DF90CF90BF9017
S1130B00AF909F908F907F90089597FB072E16F4D7
S1130B10009406D077FD08D00BD007FC05D03EF436
S1130B20909581959F4F0895709561957F4F089595
S1130B30AA1BBB1B51E107C0AA1FBB1FA617B707FF
S1130B4010F0A61BB70B881F991F5A95A9F780951B
S10F0B509095BC01CD010895F894FFCFEE
S1130B5C1E21D2C0D2CC211E1E21D2C0DEC0211E29
S1130B6C1E21D2C0CCD2211E9CB6A2A2A2B69C80BD
S1130B7C809C9C9CFFBE9C888080888C8A888888FA
S1130B8CBE80809C9C9CFFBE9C8880809CA2A09074
S1130B9C8884BE80809C9C9CFFBE9C8880809CA288
S1130BACA098A0A29C9CB6A2A2A2B69C8080889C71
S1130BBCBEFF9C9C9C8080888C8A888888BE8080A0
S1130BCC889CBEFF9C9C9C80809CA2A0908884BE28
S1130BDC8080889CBEFF9C9C9C80809CA2A098A03A
S1050BECA29CC5
S9030000FC
