:1000000045C0000058C0000056C0000054C00000A9
:1000100052C0000050C000004EC000004CC00000A4
:100020004AC0000048C0000046C0000044C00000B4
:1000300042C0000040C000003EC000003CC00000C4
:100040003AC0000038C0000036C0000034C00000D4
:1000500032C0000030C000002EC000002CC00000E4
:100060002AC0000028C0000026C0000024C00000F4
:1000700022C0000020C000001EC000001CC0000004
:100080001AC0000018C0000016C0000011241FBED6
:10009000CFEFD0E1DEBFCDBF11E0A0E0B1E0ECE5F5
:1000A000F4E000E00BBF02C007900D92A032B10750
:1000B000D9F787D1D1C1A4CF982F907F95BBAB9AA8
:1000C000E3EDF0E33197F1F700C0000094E095BB59
:1000D000F0E18F9FC001112485BBAB9A83ED90E3C3
:1000E0000197F1F700C0000015BA089582E090E092
:1000F000E3DF88E290E0E0DF8CE090E0DDDF86E0A7
:1001000090E0DADF80E890E0D7CF0895181619065E
:100110006CF420E030E0E9EFF0E03197F1F700C057
:1001200000002F5F3F4F28173907A9F70895109255
:10013000710080E280937000089584EA80937400D7
:10014000E4E7F0E080818823ECF708958093730062
:1001500084E880937400E4E7F0E080818823ECF782
:1001600008952F923F924F925F926F927F929F924B
:10017000AF92BF92CF92DF92EF92FF920F931F93B5
:10018000CF93DF93EE24E394F12C212C912C04E700
:1001900010E00F2EF4E93F2EF02D0F2EF8E16F2E18
:1001A000F1E07F2EF02D0F2EF0E04F2EF1E05F2ECC
:1001B000F02D0F2EF8E0CF2EF1E0DF2EF02D03C052
:1001C0008FEFE81AF80AC70101978230910509F408
:1001D0003AC02CF4009769F0019701F1A1C0843076
:1001E000910509F45FC00CF448C0059709F479C083
:1001F00097C05201C22DD92DA0DF80EE90E0A6DF7E
:10020000CE01A4DFF50181915F0190E09FDFF8014D
:1002100030822296AC14BD0479F78FC05601C22DEE
:10022000D92D8BDF80EE90E091DFCE018FDFF501DD
:1002300081915F0190E08ADFF80130822296C0311F
:10024000D10579F77AC00F2EF0E1AF2EF1E0BF2E85
:10025000F02DC22DD92D71DF80EE90E077DFCE0139
:1002600075DFF50181915F0190E070DFF801308268
:100270002296C031D10579F760C05301C22DD92D26
:100280005CDF80EE90E062DFCE0160DFF5018191FE
:100290005F0190E05BDFF80130822296C031D1052A
:1002A00079F74BC000E111E0C0E0D0E00F2EF4E799
:1002B000CF2ED12CF02D0F2EF4E9FF2EF02D3DDFA7
:1002C00080EE90E043DFCE0141DFF80181918F01A4
:1002D00090E03CDFF601F0822296C031D10579F73B
:1002E00028C008E011E0C0E0D0E00F2EF4E7CF2EE8
:1002F000D12CF02D0F2EF4E9FF2EF02D1EDF80EE15
:1003000090E024DFCE0122DFF80181918F0190E09F
:100310001DDFF601F0822296C031D10579F709C0C0
:1003200084EF91E0F3DEF5E0EF16F1040CF448CF32
:1003300008C084EF91E0EADE04C084EF91E0E6DEDD
:100340003FCFDF91CF911F910F91FF90EF90DF9002
:10035000CF90BF90AF909F907F906F905F904F90A5
:100360003F902F9008951F93CF93DF93BFDE31D03E
:1003700052D0DDDEE2DE80EE90E0E8DE81E290E069
:10038000E5DEC4E7D0E014E91883D7DE80EE90E024
:10039000DDDE80EA90E0DADE1883CFDE80EE90E0EA
:1003A000D5DE83EE90E0D2DE1883C7DE80EE90E0EB
:1003B000CDDE81E890E0CADE1883DF91CF911F91F6
:1003C00008958FEF81BB84BB81E087BBCCDFC9DEA2
:1003D000FECF8FEF87BBBB98C09A82E58DB9089599
:1003E0008FB9779BFECF089598B321E030E002C02B
:1003F000220F331F8A95E2F72095292328BB089501
:1004000098B321E030E002C0220F331F8A95E2F753
:10041000292B28BB089580E0E7DF89E0E1DF8FEF3B
:10042000DFDF80E0EDDF80E0DFDF8AE0D9DF8FE033
:10043000D7DF80E0E5DF80E0D7DF8BE0D1DF84E04D
:10044000CFDF80E0DDDF80E0CFDF8CE0C9DF81E05F
:0C045000C7DF80E0D5CF0895F894FFCFFF
:10045C003E7FBD9F8FBF7F3E1E3FFD9F8FFF3F1E88
:10046C001E3FFDFF9FFF3F1E1E3FFDFFFFFF3F1E78
:00000001FF
