S00E00006D61747269782E7372656381
S113000045C0000058C0000056C0000054C00000A5
S113001052C0000050C000004EC000004CC00000A0
S11300204AC0000048C0000046C0000044C00000B0
S113003042C0000040C000003EC000003CC00000C0
S11300403AC0000038C0000036C0000034C00000D0
S113005032C0000030C000002EC000002CC00000E0
S11300602AC0000028C0000026C0000024C00000F0
S113007022C0000020C000001EC000001CC0000000
S11300801AC0000018C0000016C0000011241FBED2
S1130090CFEFD0E1DEBFCDBF11E0A0E0B1E0E4EAF4
S11300A0F2E000E00BBF02C007900D92A831B10747
S11300B0D9F7ABD0F5C0A4CF982F907F95BBAB9A5E
S11300C0E3EDF0E33197F1F700C0000094E095BB55
S11300D0F0E18F9FC001112485BBAB9A83ED90E3BF
S11300E00197F1F700C0000015BA089582E090E08E
S11300F0E3DF88E290E0E0DF8CE090E0DDDF86E0A3
S113010090E0DADF80E890E0D7CF08951092710094
S113011080E280937000089584EA80937400E4E799
S1130120F0E080818823ECF708958093730084E8DD
S113013080937400E4E7F0E080818823ECF708956D
S1130140AF92BF92CF92DF92FF920F931F93CF9300
S1130150DF9300E011E00F2EF8E0AF2EF1E0BF2EA8
S1130160F02DC0E0D0E00F2EF4E7CF2ED12CF02DEF
S11301700F2EF4E9FF2EF02DCFDF80EE90E0D5DFD7
S1130180CE01D3DFF80181918F0190E0CEDFF6013B
S1130190F08222960A151B0579F7DF91CF911F9102
S11301A00F91FF90DF90CF90BF90AF9008951F9371
S11301B0CF93DF939BDF31D052D0A8DFADDF80EE49
S11301C090E0B3DF81E290E0B0DFC4E7D0E014E96F
S11301D01883A2DF80EE90E0A8DF80EA90E0A5DF3C
S11301E018839ADF80EE90E0A0DF83EE90E09DDF3D
S11301F0188392DF80EE90E098DF81E890E095DF4D
S11302001883DF91CF911F9108958FEF81BB84BB39
S113021081E087BBCCDF94DFFECF8FEF87BBBB9839
S1130220C09A82E58DB908958FB9779BFECF089562
S113023098B321E030E002C0220F331F8A95E2F721
S11302402095292328BB089598B321E030E002C00B
S1130250220F331F8A95E2F7292B28BB089580E0EB
S1130260E7DF89E0E1DF8FEFDFDF80E0EDDF80E0D3
S1130270DFDF8AE0D9DF8FE0D7DF80E0E5DF80E0F1
S1130280D7DF8BE0D1DF84E0CFDF80E0DDDF80E00B
S1130290CFDF8CE0C9DF81E0C7DF80E0D5CF0895F0
S10702A0F894FFCFFC
S11302A41E21D2C0D2CC211E1E21D2C0DEC0211EEA
S10B02B41E21D2C0CCD2211E90
S9030000FC
