:1000000045C0000058C0000056C0000054C00000A9
:1000100052C0000050C000004EC000004CC00000A4
:100020004AC0000048C0000046C0000044C00000B4
:1000300042C0000040C000003EC000003CC00000C4
:100040003AC0000038C0000036C0000034C00000D4
:1000500032C0000030C000002EC000002CC00000E4
:100060002AC0000028C0000026C0000024C00000F4
:1000700022C0000020C000001EC000001CC0000004
:100080001AC0000018C0000016C0000011241FBED6
:10009000CFEFD0E1DEBFCDBF11E0A0E0B1E0ECEDED
:1000A000F3E000E00BBF02C007900D92A032B10751
:1000B000D9F747D191C1A4CF982F907F95BBAB9A28
:1000C000E3EDF0E33197F1F700C0000094E095BB59
:1000D000F0E18F9FC001112485BBAB9A83ED90E3C3
:1000E0000197F1F700C0000015BA089582E090E092
:1000F000E3DF88E290E0E0DF8CE090E0DDDF86E0A7
:1001000090E0DADF80E890E0D7CF0895181619065E
:100110006CF420E030E0E9EFF0E03197F1F700C057
:1001200000002F5F3F4F28173907A9F70895109255
:10013000710080E280937000089584EA80937400D7
:10014000E4E7F0E080818823ECF708958093730062
:1001500084E880937400E4E7F0E080818823ECF782
:1001600008955F926F927F928F929F92AF92BF920B
:10017000CF92DF92EF92FF920F931F93CF93DF9373
:10018000EE24E394F12C0F2EF8E0CF2EF1E0DF2ED9
:10019000F02D612C512C04E710E00F2EF4E97F2E96
:1001A000F02D0F2EF0E08F2EF1E09F2EF02D03C0EA
:1001B0008FEFE81AF80AC70101978130910501F124
:1001C0001CF4892B41F06FC08230910571F10397C7
:1001D00009F44AC068C05401C62DD52DAEDF80EEAB
:1001E00090E0B4DFCE01B2DFF50181915F0190E0D4
:1001F000ADDFF80170822296AC14BD0479F75CC0C3
:100200005601C62DD52D99DF80EE90E09FDFCE01FF
:100210009DDFF50181915F0190E098DFF801708228
:100220002296C031D10579F747C000E111E0C0E066
:10023000D0E00F2EF4E7CF2ED12CF02D0F2EF4E9C5
:10024000FF2EF02D7ADF80EE90E080DFCE017EDFA2
:10025000F80181918F0190E079DFF601F08222961A
:10026000C031D10579F72CC008E111E0C0E0D0E041
:100270000F2EF4E7CF2ED12CF02D0F2EF4E9FF2E08
:10028000F02D5BDF80EE90E061DFCE015FDFF801F3
:1002900081918F0190E05ADFF601F0822296C03101
:1002A000D10579F70DC084EF91E030DFF3E0EF1670
:1002B000F1040CF47DCF07C084EF91E027DF78CF05
:1002C00084EF91E023DFDF91CF911F910F91FF9099
:1002D000EF90DF90CF90BF90AF909F908F907F90E6
:1002E0006F905F9008951F93CF93DF93FFDE31D01F
:1002F00052D01DDF22DF80EE90E028DF81E290E027
:1003000025DFC4E7D0E014E9188317DF80EE90E022
:100310001DDF80EA90E01ADF18830FDF80EE90E0A7
:1003200015DF83EE90E012DF188307DF80EE90E0A8
:100330000DDF81E890E00ADF1883DF91CF911F91F4
:1003400008958FEF81BB84BB81E087BBCCDF09DFE1
:10035000FECF8FEF87BBBB98C09A82E58DB9089519
:100360008FB9779BFECF089598B321E030E002C0AB
:10037000220F331F8A95E2F72095292328BB089581
:1003800098B321E030E002C0220F331F8A95E2F7D4
:10039000292B28BB089580E0E7DF89E0E1DF8FEFBC
:1003A000DFDF80E0EDDF80E0DFDF8AE0D9DF8FE0B4
:1003B000D7DF80E0E5DF80E0D7DF8BE0D1DF84E0CE
:1003C000CFDF80E0DDDF80E0CFDF8CE0C9DF81E0E0
:0C03D000C7DF80E0D5CF0895F894FFCF80
:1003DC003E7FBD9F8FBF7F3E1E3FFD9F8FFF3F1E09
:1003EC001E3FFDFF9FFF3F1E1E3FFDFFFFFF3F1EF9
:00000001FF
